{
  "_format": "hh-sol-artifact-1",
  "contractName": "PropShieldSBT",
  "sourceName": "contracts/PropShieldSBT.sol",
  "abi": [
    {
      "inputs": [
        {
          "internalType": "address",
          "name": "_lendingContractAddress",
          "type": "address"
        }
      ],
      "stateMutability": "nonpayable",
      "type": "constructor"
    },
    {
      "inputs": [
        {
          "internalType": "address",
          "name": "sender",
          "type": "address"
        },
        {
          "internalType": "uint256",
          "name": "tokenId",
          "type": "uint256"
        },
        {
          "internalType": "address",
          "name": "owner",
          "type": "address"
        }
      ],
      "name": "ERC721IncorrectOwner",
      "type": "error"
    },
    {
      "inputs": [
        {
          "internalType": "address",
          "name": "operator",
          "type": "address"
        },
        {
          "internalType": "uint256",
          "name": "tokenId",
          "type": "uint256"
        }
      ],
      "name": "ERC721InsufficientApproval",
      "type": "error"
    },
    {
      "inputs": [
        {
          "internalType": "address",
          "name": "approver",
          "type": "address"
        }
      ],
      "name": "ERC721InvalidApprover",
      "type": "error"
    },
    {
      "inputs": [
        {
          "internalType": "address",
          "name": "operator",
          "type": "address"
        }
      ],
      "name": "ERC721InvalidOperator",
      "type": "error"
    },
    {
      "inputs": [
        {
          "internalType": "address",
          "name": "owner",
          "type": "address"
        }
      ],
      "name": "ERC721InvalidOwner",
      "type": "error"
    },
    {
      "inputs": [
        {
          "internalType": "address",
          "name": "receiver",
          "type": "address"
        }
      ],
      "name": "ERC721InvalidReceiver",
      "type": "error"
    },
    {
      "inputs": [
        {
          "internalType": "address",
          "name": "sender",
          "type": "address"
        }
      ],
      "name": "ERC721InvalidSender",
      "type": "error"
    },
    {
      "inputs": [
        {
          "internalType": "uint256",
          "name": "tokenId",
          "type": "uint256"
        }
      ],
      "name": "ERC721NonexistentToken",
      "type": "error"
    },
    {
      "inputs": [
        {
          "internalType": "address",
          "name": "owner",
          "type": "address"
        }
      ],
      "name": "OwnableInvalidOwner",
      "type": "error"
    },
    {
      "inputs": [
        {
          "internalType": "address",
          "name": "account",
          "type": "address"
        }
      ],
      "name": "OwnableUnauthorizedAccount",
      "type": "error"
    },
    {
      "anonymous": false,
      "inputs": [
        {
          "indexed": true,
          "internalType": "address",
          "name": "owner",
          "type": "address"
        },
        {
          "indexed": true,
          "internalType": "address",
          "name": "approved",
          "type": "address"
        },
        {
          "indexed": true,
          "internalType": "uint256",
          "name": "tokenId",
          "type": "uint256"
        }
      ],
      "name": "Approval",
      "type": "event"
    },
    {
      "anonymous": false,
      "inputs": [
        {
          "indexed": true,
          "internalType": "address",
          "name": "owner",
          "type": "address"
        },
        {
          "indexed": true,
          "internalType": "address",
          "name": "operator",
          "type": "address"
        },
        {
          "indexed": false,
          "internalType": "bool",
          "name": "approved",
          "type": "bool"
        }
      ],
      "name": "ApprovalForAll",
      "type": "event"
    },
    {
      "anonymous": false,
      "inputs": [
        {
          "indexed": true,
          "internalType": "address",
          "name": "user",
          "type": "address"
        },
        {
          "indexed": false,
          "internalType": "uint256",
          "name": "tokenId",
          "type": "uint256"
        },
        {
          "indexed": false,
          "internalType": "uint256",
          "name": "score",
          "type": "uint256"
        }
      ],
      "name": "BadgeMinted",
      "type": "event"
    },
    {
      "anonymous": false,
      "inputs": [
        {
          "indexed": true,
          "internalType": "address",
          "name": "previousOwner",
          "type": "address"
        },
        {
          "indexed": true,
          "internalType": "address",
          "name": "newOwner",
          "type": "address"
        }
      ],
      "name": "OwnershipTransferred",
      "type": "event"
    },
    {
      "anonymous": false,
      "inputs": [
        {
          "indexed": true,
          "internalType": "address",
          "name": "from",
          "type": "address"
        },
        {
          "indexed": true,
          "internalType": "address",
          "name": "to",
          "type": "address"
        },
        {
          "indexed": true,
          "internalType": "uint256",
          "name": "tokenId",
          "type": "uint256"
        }
      ],
      "name": "Transfer",
      "type": "event"
    },
    {
      "inputs": [
        {
          "internalType": "address",
          "name": "to",
          "type": "address"
        },
        {
          "internalType": "uint256",
          "name": "tokenId",
          "type": "uint256"
        }
      ],
      "name": "approve",
      "outputs": [],
      "stateMutability": "nonpayable",
      "type": "function"
    },
    {
      "inputs": [
        {
          "internalType": "address",
          "name": "owner",
          "type": "address"
        }
      ],
      "name": "balanceOf",
      "outputs": [
        {
          "internalType": "uint256",
          "name": "",
          "type": "uint256"
        }
      ],
      "stateMutability": "view",
      "type": "function"
    },
    {
      "inputs": [
        {
          "internalType": "uint256",
          "name": "tokenId",
          "type": "uint256"
        }
      ],
      "name": "getApproved",
      "outputs": [
        {
          "internalType": "address",
          "name": "",
          "type": "address"
        }
      ],
      "stateMutability": "view",
      "type": "function"
    },
    {
      "inputs": [
        {
          "internalType": "address",
          "name": "owner",
          "type": "address"
        },
        {
          "internalType": "address",
          "name": "operator",
          "type": "address"
        }
      ],
      "name": "isApprovedForAll",
      "outputs": [
        {
          "internalType": "bool",
          "name": "",
          "type": "bool"
        }
      ],
      "stateMutability": "view",
      "type": "function"
    },
    {
      "inputs": [],
      "name": "lendingContract",
      "outputs": [
        {
          "internalType": "contract IPropShieldLending",
          "name": "",
          "type": "address"
        }
      ],
      "stateMutability": "view",
      "type": "function"
    },
    {
      "inputs": [],
      "name": "mint",
      "outputs": [],
      "stateMutability": "nonpayable",
      "type": "function"
    },
    {
      "inputs": [],
      "name": "name",
      "outputs": [
        {
          "internalType": "string",
          "name": "",
          "type": "string"
        }
      ],
      "stateMutability": "view",
      "type": "function"
    },
    {
      "inputs": [],
      "name": "owner",
      "outputs": [
        {
          "internalType": "address",
          "name": "",
          "type": "address"
        }
      ],
      "stateMutability": "view",
      "type": "function"
    },
    {
      "inputs": [
        {
          "internalType": "uint256",
          "name": "tokenId",
          "type": "uint256"
        }
      ],
      "name": "ownerOf",
      "outputs": [
        {
          "internalType": "address",
          "name": "",
          "type": "address"
        }
      ],
      "stateMutability": "view",
      "type": "function"
    },
    {
      "inputs": [],
      "name": "renounceOwnership",
      "outputs": [],
      "stateMutability": "nonpayable",
      "type": "function"
    },
    {
      "inputs": [
        {
          "internalType": "address",
          "name": "from",
          "type": "address"
        },
        {
          "internalType": "address",
          "name": "to",
          "type": "address"
        },
        {
          "internalType": "uint256",
          "name": "tokenId",
          "type": "uint256"
        }
      ],
      "name": "safeTransferFrom",
      "outputs": [],
      "stateMutability": "nonpayable",
      "type": "function"
    },
    {
      "inputs": [
        {
          "internalType": "address",
          "name": "from",
          "type": "address"
        },
        {
          "internalType": "address",
          "name": "to",
          "type": "address"
        },
        {
          "internalType": "uint256",
          "name": "tokenId",
          "type": "uint256"
        },
        {
          "internalType": "bytes",
          "name": "data",
          "type": "bytes"
        }
      ],
      "name": "safeTransferFrom",
      "outputs": [],
      "stateMutability": "nonpayable",
      "type": "function"
    },
    {
      "inputs": [
        {
          "internalType": "address",
          "name": "operator",
          "type": "address"
        },
        {
          "internalType": "bool",
          "name": "approved",
          "type": "bool"
        }
      ],
      "name": "setApprovalForAll",
      "outputs": [],
      "stateMutability": "nonpayable",
      "type": "function"
    },
    {
      "inputs": [
        {
          "internalType": "address",
          "name": "_newInstance",
          "type": "address"
        }
      ],
      "name": "setLendingContract",
      "outputs": [],
      "stateMutability": "nonpayable",
      "type": "function"
    },
    {
      "inputs": [
        {
          "internalType": "bytes4",
          "name": "interfaceId",
          "type": "bytes4"
        }
      ],
      "name": "supportsInterface",
      "outputs": [
        {
          "internalType": "bool",
          "name": "",
          "type": "bool"
        }
      ],
      "stateMutability": "view",
      "type": "function"
    },
    {
      "inputs": [],
      "name": "symbol",
      "outputs": [
        {
          "internalType": "string",
          "name": "",
          "type": "string"
        }
      ],
      "stateMutability": "view",
      "type": "function"
    },
    {
      "inputs": [
        {
          "internalType": "uint256",
          "name": "tokenId",
          "type": "uint256"
        }
      ],
      "name": "tokenURI",
      "outputs": [
        {
          "internalType": "string",
          "name": "",
          "type": "string"
        }
      ],
      "stateMutability": "view",
      "type": "function"
    },
    {
      "inputs": [
        {
          "internalType": "address",
          "name": "from",
          "type": "address"
        },
        {
          "internalType": "address",
          "name": "to",
          "type": "address"
        },
        {
          "internalType": "uint256",
          "name": "tokenId",
          "type": "uint256"
        }
      ],
      "name": "transferFrom",
      "outputs": [],
      "stateMutability": "nonpayable",
      "type": "function"
    },
    {
      "inputs": [
        {
          "internalType": "address",
          "name": "newOwner",
          "type": "address"
        }
      ],
      "name": "transferOwnership",
      "outputs": [],
      "stateMutability": "nonpayable",
      "type": "function"
    }
  ],
  "bytecode": "0x60806040523480156200001157600080fd5b5060405162002b9538038062002b958339818101604052810190620000379190620002c9565b336040518060400160405280601781526020017f566572696669656420426f72726f7765722042616467650000000000000000008152506040518060400160405280600381526020017f56505300000000000000000000000000000000000000000000000000000000008152508160009081620000b5919062000575565b508060019081620000c7919062000575565b505050600073ffffffffffffffffffffffffffffffffffffffff168173ffffffffffffffffffffffffffffffffffffffff16036200013f5760006040517f1e4fbdf70000000000000000000000000000000000000000000000000000000081526004016200013691906200066d565b60405180910390fd5b62000150816200019960201b60201c565b5080600760006101000a81548173ffffffffffffffffffffffffffffffffffffffff021916908373ffffffffffffffffffffffffffffffffffffffff160217905550506200068a565b6000600660009054906101000a900473ffffffffffffffffffffffffffffffffffffffff16905081600660006101000a81548173ffffffffffffffffffffffffffffffffffffffff021916908373ffffffffffffffffffffffffffffffffffffffff1602179055508173ffffffffffffffffffffffffffffffffffffffff168173ffffffffffffffffffffffffffffffffffffffff167f8be0079c531659141344cd1fd0a4f28419497f9722a3daafe3b4186f6b6457e060405160405180910390a35050565b600080fd5b600073ffffffffffffffffffffffffffffffffffffffff82169050919050565b6000620002918262000264565b9050919050565b620002a38162000284565b8114620002af57600080fd5b50565b600081519050620002c38162000298565b92915050565b600060208284031215620002e257620002e16200025f565b5b6000620002f284828501620002b2565b91505092915050565b600081519050919050565b7f4e487b7100000000000000000000000000000000000000000000000000000000600052604160045260246000fd5b7f4e487b7100000000000000000000000000000000000000000000000000000000600052602260045260246000fd5b600060028204905060018216806200037d57607f821691505b60208210810362000393576200039262000335565b5b50919050565b60008190508160005260206000209050919050565b60006020601f8301049050919050565b600082821b905092915050565b600060088302620003fd7fffffffffffffffffffffffffffffffffffffffffffffffffffffffffffffffff82620003be565b620004098683620003be565b95508019841693508086168417925050509392505050565b6000819050919050565b6000819050919050565b600062000456620004506200044a8462000421565b6200042b565b62000421565b9050919050565b6000819050919050565b620004728362000435565b6200048a62000481826200045d565b848454620003cb565b825550505050565b600090565b620004a162000492565b620004ae81848462000467565b505050565b5b81811015620004d657620004ca60008262000497565b600181019050620004b4565b5050565b601f8211156200052557620004ef8162000399565b620004fa84620003ae565b810160208510156200050a578190505b620005226200051985620003ae565b830182620004b3565b50505b505050565b600082821c905092915050565b60006200054a600019846008026200052a565b1980831691505092915050565b600062000565838362000537565b9150826002028217905092915050565b6200058082620002fb565b67ffffffffffffffff8111156200059c576200059b62000306565b5b620005a8825462000364565b620005b5828285620004da565b600060209050601f831160018114620005ed5760008415620005d8578287015190505b620005e4858262000557565b86555062000654565b601f198416620005fd8662000399565b60005b82811015620006275784890151825560018201915060208501945060208101905062000600565b8683101562000647578489015162000643601f89168262000537565b8355505b6001600288020188555050505b505050505050565b620006678162000284565b82525050565b60006020820190506200068460008301846200065c565b92915050565b6124fb806200069a6000396000f3fe608060405234801561001057600080fd5b50600436106101215760003560e01c8063715018a6116100ad578063c87b56dd11610071578063c87b56dd146102e0578063e985e9c514610310578063ed58d5ec14610340578063f2fde38b1461035c578063f4aa673f1461037857610121565b8063715018a6146102625780638da5cb5b1461026c57806395d89b411461028a578063a22cb465146102a8578063b88d4fde146102c457610121565b80631249c58b116100f45780631249c58b146101c057806323b872dd146101ca57806342842e0e146101e65780636352211e1461020257806370a082311461023257610121565b806301ffc9a71461012657806306fdde0314610156578063081812fc14610174578063095ea7b3146101a4575b600080fd5b610140600480360381019061013b9190611a5f565b610396565b60405161014d9190611aa7565b60405180910390f35b61015e610478565b60405161016b9190611b52565b60405180910390f35b61018e60048036038101906101899190611baa565b61050a565b60405161019b9190611c18565b60405180910390f35b6101be60048036038101906101b99190611c5f565b610526565b005b6101c861053c565b005b6101e460048036038101906101df9190611c9f565b6106ec565b005b61020060048036038101906101fb9190611c9f565b610727565b005b61021c60048036038101906102179190611baa565b610747565b6040516102299190611c18565b60405180910390f35b61024c60048036038101906102479190611cf2565b610759565b6040516102599190611d2e565b60405180910390f35b61026a610813565b005b610274610827565b6040516102819190611c18565b60405180910390f35b610292610851565b60405161029f9190611b52565b60405180910390f35b6102c260048036038101906102bd9190611d75565b6108e3565b005b6102de60048036038101906102d99190611eea565b6108f9565b005b6102fa60048036038101906102f59190611baa565b610934565b6040516103079190611b52565b60405180910390f35b61032a60048036038101906103259190611f6d565b61099d565b6040516103379190611aa7565b60405180910390f35b61035a60048036038101906103559190611cf2565b610a31565b005b61037660048036038101906103719190611cf2565b610a7d565b005b610380610b03565b60405161038d919061200c565b60405180910390f35b60007f80ac58cd000000000000000000000000000000000000000000000000000000007bffffffffffffffffffffffffffffffffffffffffffffffffffffffff1916827bffffffffffffffffffffffffffffffffffffffffffffffffffffffff1916148061046157507f5b5e139f000000000000000000000000000000000000000000000000000000007bffffffffffffffffffffffffffffffffffffffffffffffffffffffff1916827bffffffffffffffffffffffffffffffffffffffffffffffffffffffff1916145b80610471575061047082610b29565b5b9050919050565b60606000805461048790612056565b80601f01602080910402602001604051908101604052809291908181526020018280546104b390612056565b80156105005780601f106104d557610100808354040283529160200191610500565b820191906000526020600020905b8154815290600101906020018083116104e357829003601f168201915b5050505050905090565b600061051582610b93565b5061051f82610c1b565b9050919050565b6105388282610533610c58565b610c60565b5050565b6000600760009054906101000a900473ffffffffffffffffffffffffffffffffffffffff1673ffffffffffffffffffffffffffffffffffffffff1663bf5d50c4336040518263ffffffff1660e01b81526004016105999190611c18565b608060405180830381865afa1580156105b6573d6000803e3d6000fd5b505050506040513d601f19601f820116820180604052508101906105da9190612119565b9050605081602001511015610624576040517f08c379a000000000000000000000000000000000000000000000000000000000815260040161061b90612192565b60405180910390fd5b600061062f33610759565b1461066f576040517f08c379a0000000000000000000000000000000000000000000000000000000008152600401610666906121fe565b60405180910390fd5b6000600860008154809291906106849061224d565b9190505590506106943382610c72565b3373ffffffffffffffffffffffffffffffffffffffff167f7e6f783c7d2fd31e9979cbb09639e191e20de085caf64b2875d53ff862aa3baa8284602001516040516106e0929190612295565b60405180910390a25050565b6040517f08c379a000000000000000000000000000000000000000000000000000000000815260040161071e9061230a565b60405180910390fd5b610742838383604051806020016040528060008152506108f9565b505050565b600061075282610b93565b9050919050565b60008073ffffffffffffffffffffffffffffffffffffffff168273ffffffffffffffffffffffffffffffffffffffff16036107cc5760006040517f89c62b640000000000000000000000000000000000000000000000000000000081526004016107c39190611c18565b60405180910390fd5b600360008373ffffffffffffffffffffffffffffffffffffffff1673ffffffffffffffffffffffffffffffffffffffff168152602001908152602001600020549050919050565b61081b610c90565b6108256000610d17565b565b6000600660009054906101000a900473ffffffffffffffffffffffffffffffffffffffff16905090565b60606001805461086090612056565b80601f016020809104026020016040519081016040528092919081815260200182805461088c90612056565b80156108d95780601f106108ae576101008083540402835291602001916108d9565b820191906000526020600020905b8154815290600101906020018083116108bc57829003601f168201915b5050505050905090565b6108f56108ee610c58565b8383610ddd565b5050565b6040517f08c379a000000000000000000000000000000000000000000000000000000000815260040161092b9061230a565b60405180910390fd5b606061093f82610b93565b50600061094a610f4c565b9050600081511161096a5760405180602001604052806000815250610995565b8061097484610f63565b604051602001610985929190612366565b6040516020818303038152906040525b915050919050565b6000600560008473ffffffffffffffffffffffffffffffffffffffff1673ffffffffffffffffffffffffffffffffffffffff16815260200190815260200160002060008373ffffffffffffffffffffffffffffffffffffffff1673ffffffffffffffffffffffffffffffffffffffff16815260200190815260200160002060009054906101000a900460ff16905092915050565b610a39610c90565b80600760006101000a81548173ffffffffffffffffffffffffffffffffffffffff021916908373ffffffffffffffffffffffffffffffffffffffff16021790555050565b610a85610c90565b600073ffffffffffffffffffffffffffffffffffffffff168173ffffffffffffffffffffffffffffffffffffffff1603610af75760006040517f1e4fbdf7000000000000000000000000000000000000000000000000000000008152600401610aee9190611c18565b60405180910390fd5b610b0081610d17565b50565b600760009054906101000a900473ffffffffffffffffffffffffffffffffffffffff1681565b60007f01ffc9a7000000000000000000000000000000000000000000000000000000007bffffffffffffffffffffffffffffffffffffffffffffffffffffffff1916827bffffffffffffffffffffffffffffffffffffffffffffffffffffffff1916149050919050565b600080610b9f83611031565b9050600073ffffffffffffffffffffffffffffffffffffffff168173ffffffffffffffffffffffffffffffffffffffff1603610c1257826040517f7e273289000000000000000000000000000000000000000000000000000000008152600401610c099190611d2e565b60405180910390fd5b80915050919050565b60006004600083815260200190815260200160002060009054906101000a900473ffffffffffffffffffffffffffffffffffffffff169050919050565b600033905090565b610c6d838383600161106e565b505050565b610c8c828260405180602001604052806000815250611233565b5050565b610c98610c58565b73ffffffffffffffffffffffffffffffffffffffff16610cb6610827565b73ffffffffffffffffffffffffffffffffffffffff1614610d1557610cd9610c58565b6040517f118cdaa7000000000000000000000000000000000000000000000000000000008152600401610d0c9190611c18565b60405180910390fd5b565b6000600660009054906101000a900473ffffffffffffffffffffffffffffffffffffffff16905081600660006101000a81548173ffffffffffffffffffffffffffffffffffffffff021916908373ffffffffffffffffffffffffffffffffffffffff1602179055508173ffffffffffffffffffffffffffffffffffffffff168173ffffffffffffffffffffffffffffffffffffffff167f8be0079c531659141344cd1fd0a4f28419497f9722a3daafe3b4186f6b6457e060405160405180910390a35050565b600073ffffffffffffffffffffffffffffffffffffffff168273ffffffffffffffffffffffffffffffffffffffff1603610e4e57816040517f5b08ba18000000000000000000000000000000000000000000000000000000008152600401610e459190611c18565b60405180910390fd5b80600560008573ffffffffffffffffffffffffffffffffffffffff1673ffffffffffffffffffffffffffffffffffffffff16815260200190815260200160002060008473ffffffffffffffffffffffffffffffffffffffff1673ffffffffffffffffffffffffffffffffffffffff16815260200190815260200160002060006101000a81548160ff0219169083151502179055508173ffffffffffffffffffffffffffffffffffffffff168373ffffffffffffffffffffffffffffffffffffffff167f17307eab39ab6107e8899845ad3d59bd9653f200f220920489ca2b5937696c3183604051610f3f9190611aa7565b60405180910390a3505050565b606060405180602001604052806000815250905090565b606060006001610f7284611257565b01905060008167ffffffffffffffff811115610f9157610f90611dbf565b5b6040519080825280601f01601f191660200182016040528015610fc35781602001600182028036833780820191505090505b509050600082602083010190505b600115611026578080600190039150507f3031323334353637383961626364656600000000000000000000000000000000600a86061a8153600a858161101a5761101961238a565b5b04945060008503610fd1575b819350505050919050565b60006002600083815260200190815260200160002060009054906101000a900473ffffffffffffffffffffffffffffffffffffffff169050919050565b80806110a75750600073ffffffffffffffffffffffffffffffffffffffff168273ffffffffffffffffffffffffffffffffffffffff1614155b156111db5760006110b784610b93565b9050600073ffffffffffffffffffffffffffffffffffffffff168373ffffffffffffffffffffffffffffffffffffffff161415801561112257508273ffffffffffffffffffffffffffffffffffffffff168173ffffffffffffffffffffffffffffffffffffffff1614155b80156111355750611133818461099d565b155b1561117757826040517fa9fbf51f00000000000000000000000000000000000000000000000000000000815260040161116e9190611c18565b60405180910390fd5b81156111d957838573ffffffffffffffffffffffffffffffffffffffff168273ffffffffffffffffffffffffffffffffffffffff167f8c5be1e5ebec7d5bd14f71427d1e84f3dd0314c0f7b2291e5b200ac8c7c3b92560405160405180910390a45b505b836004600085815260200190815260200160002060006101000a81548173ffffffffffffffffffffffffffffffffffffffff021916908373ffffffffffffffffffffffffffffffffffffffff16021790555050505050565b61123d83836113aa565b611252611248610c58565b60008585856114a3565b505050565b600080600090507a184f03e93ff9f4daa797ed6e38ed64bf6a1f01000000000000000083106112b5577a184f03e93ff9f4daa797ed6e38ed64bf6a1f01000000000000000083816112ab576112aa61238a565b5b0492506040810190505b6d04ee2d6d415b85acef810000000083106112f2576d04ee2d6d415b85acef810000000083816112e8576112e761238a565b5b0492506020810190505b662386f26fc10000831061132157662386f26fc1000083816113175761131661238a565b5b0492506010810190505b6305f5e100831061134a576305f5e10083816113405761133f61238a565b5b0492506008810190505b612710831061136f5761271083816113655761136461238a565b5b0492506004810190505b6064831061139257606483816113885761138761238a565b5b0492506002810190505b600a83106113a1576001810190505b80915050919050565b600073ffffffffffffffffffffffffffffffffffffffff168273ffffffffffffffffffffffffffffffffffffffff160361141c5760006040517f64a0ae920000000000000000000000000000000000000000000000000000000081526004016114139190611c18565b60405180910390fd5b600061142a83836000611654565b9050600073ffffffffffffffffffffffffffffffffffffffff168173ffffffffffffffffffffffffffffffffffffffff161461149e5760006040517f73c6ac6e0000000000000000000000000000000000000000000000000000000081526004016114959190611c18565b60405180910390fd5b505050565b60008373ffffffffffffffffffffffffffffffffffffffff163b111561164d578273ffffffffffffffffffffffffffffffffffffffff1663150b7a02868685856040518563ffffffff1660e01b8152600401611502949392919061240e565b6020604051808303816000875af192505050801561153e57506040513d601f19601f8201168201806040525081019061153b919061246f565b60015b6115c2573d806000811461156e576040519150601f19603f3d011682016040523d82523d6000602084013e611573565b606091505b5060008151036115ba57836040517f64a0ae920000000000000000000000000000000000000000000000000000000081526004016115b19190611c18565b60405180910390fd5b805160208201fd5b63150b7a0260e01b7bffffffffffffffffffffffffffffffffffffffffffffffffffffffff1916817bffffffffffffffffffffffffffffffffffffffffffffffffffffffff19161461164b57836040517f64a0ae920000000000000000000000000000000000000000000000000000000081526004016116429190611c18565b60405180910390fd5b505b5050505050565b60008061166084611031565b9050600073ffffffffffffffffffffffffffffffffffffffff168373ffffffffffffffffffffffffffffffffffffffff16146116a2576116a181848661186e565b5b600073ffffffffffffffffffffffffffffffffffffffff168173ffffffffffffffffffffffffffffffffffffffff1614611733576116e460008560008061106e565b6001600360008373ffffffffffffffffffffffffffffffffffffffff1673ffffffffffffffffffffffffffffffffffffffff168152602001908152602001600020600082825403925050819055505b600073ffffffffffffffffffffffffffffffffffffffff168573ffffffffffffffffffffffffffffffffffffffff16146117b6576001600360008773ffffffffffffffffffffffffffffffffffffffff1673ffffffffffffffffffffffffffffffffffffffff168152602001908152602001600020600082825401925050819055505b846002600086815260200190815260200160002060006101000a81548173ffffffffffffffffffffffffffffffffffffffff021916908373ffffffffffffffffffffffffffffffffffffffff160217905550838573ffffffffffffffffffffffffffffffffffffffff168273ffffffffffffffffffffffffffffffffffffffff167fddf252ad1be2c89b69c2b068fc378daa952ba7f163c4a11628f55a4df523b3ef60405160405180910390a4809150509392505050565b611879838383611932565b61192d57600073ffffffffffffffffffffffffffffffffffffffff168373ffffffffffffffffffffffffffffffffffffffff16036118ee57806040517f7e2732890000000000000000000000000000000000000000000000000000000081526004016118e59190611d2e565b60405180910390fd5b81816040517f177e802f00000000000000000000000000000000000000000000000000000000815260040161192492919061249c565b60405180910390fd5b505050565b60008073ffffffffffffffffffffffffffffffffffffffff168373ffffffffffffffffffffffffffffffffffffffff16141580156119ea57508273ffffffffffffffffffffffffffffffffffffffff168473ffffffffffffffffffffffffffffffffffffffff1614806119ab57506119aa848461099d565b5b806119e957508273ffffffffffffffffffffffffffffffffffffffff166119d183610c1b565b73ffffffffffffffffffffffffffffffffffffffff16145b5b90509392505050565b6000604051905090565b600080fd5b600080fd5b60007fffffffff0000000000000000000000000000000000000000000000000000000082169050919050565b611a3c81611a07565b8114611a4757600080fd5b50565b600081359050611a5981611a33565b92915050565b600060208284031215611a7557611a746119fd565b5b6000611a8384828501611a4a565b91505092915050565b60008115159050919050565b611aa181611a8c565b82525050565b6000602082019050611abc6000830184611a98565b92915050565b600081519050919050565b600082825260208201905092915050565b60005b83811015611afc578082015181840152602081019050611ae1565b60008484015250505050565b6000601f19601f8301169050919050565b6000611b2482611ac2565b611b2e8185611acd565b9350611b3e818560208601611ade565b611b4781611b08565b840191505092915050565b60006020820190508181036000830152611b6c8184611b19565b905092915050565b6000819050919050565b611b8781611b74565b8114611b9257600080fd5b50565b600081359050611ba481611b7e565b92915050565b600060208284031215611bc057611bbf6119fd565b5b6000611bce84828501611b95565b91505092915050565b600073ffffffffffffffffffffffffffffffffffffffff82169050919050565b6000611c0282611bd7565b9050919050565b611c1281611bf7565b82525050565b6000602082019050611c2d6000830184611c09565b92915050565b611c3c81611bf7565b8114611c4757600080fd5b50565b600081359050611c5981611c33565b92915050565b60008060408385031215611c7657611c756119fd565b5b6000611c8485828601611c4a565b9250506020611c9585828601611b95565b9150509250929050565b600080600060608486031215611cb857611cb76119fd565b5b6000611cc686828701611c4a565b9350506020611cd786828701611c4a565b9250506040611ce886828701611b95565b9150509250925092565b600060208284031215611d0857611d076119fd565b5b6000611d1684828501611c4a565b91505092915050565b611d2881611b74565b82525050565b6000602082019050611d436000830184611d1f565b92915050565b611d5281611a8c565b8114611d5d57600080fd5b50565b600081359050611d6f81611d49565b92915050565b60008060408385031215611d8c57611d8b6119fd565b5b6000611d9a85828601611c4a565b9250506020611dab85828601611d60565b9150509250929050565b600080fd5b600080fd5b7f4e487b7100000000000000000000000000000000000000000000000000000000600052604160045260246000fd5b611df782611b08565b810181811067ffffffffffffffff82111715611e1657611e15611dbf565b5b80604052505050565b6000611e296119f3565b9050611e358282611dee565b919050565b600067ffffffffffffffff821115611e5557611e54611dbf565b5b611e5e82611b08565b9050602081019050919050565b82818337600083830152505050565b6000611e8d611e8884611e3a565b611e1f565b905082815260208101848484011115611ea957611ea8611dba565b5b611eb4848285611e6b565b509392505050565b600082601f830112611ed157611ed0611db5565b5b8135611ee1848260208601611e7a565b91505092915050565b60008060008060808587031215611f0457611f036119fd565b5b6000611f1287828801611c4a565b9450506020611f2387828801611c4a565b9350506040611f3487828801611b95565b925050606085013567ffffffffffffffff811115611f5557611f54611a02565b5b611f6187828801611ebc565b91505092959194509250565b60008060408385031215611f8457611f836119fd565b5b6000611f9285828601611c4a565b9250506020611fa385828601611c4a565b9150509250929050565b6000819050919050565b6000611fd2611fcd611fc884611bd7565b611fad565b611bd7565b9050919050565b6000611fe482611fb7565b9050919050565b6000611ff682611fd9565b9050919050565b61200681611feb565b82525050565b60006020820190506120216000830184611ffd565b92915050565b7f4e487b7100000000000000000000000000000000000000000000000000000000600052602260045260246000fd5b6000600282049050600182168061206e57607f821691505b60208210810361208157612080612027565b5b50919050565b600080fd5b60008151905061209b81611b7e565b92915050565b6000608082840312156120b7576120b6612087565b5b6120c16080611e1f565b905060006120d18482850161208c565b60008301525060206120e58482850161208c565b60208301525060406120f98482850161208c565b604083015250606061210d8482850161208c565b60608301525092915050565b60006080828403121561212f5761212e6119fd565b5b600061213d848285016120a1565b91505092915050565b7f53636f726520746f6f206c6f7720666f7220426164676520284d696e20383029600082015250565b600061217c602083611acd565b915061218782612146565b602082019050919050565b600060208201905081810360008301526121ab8161216f565b9050919050565b7f416c726561647920766572696669656400000000000000000000000000000000600082015250565b60006121e8601083611acd565b91506121f3826121b2565b602082019050919050565b60006020820190508181036000830152612217816121db565b9050919050565b7f4e487b7100000000000000000000000000000000000000000000000000000000600052601160045260246000fd5b600061225882611b74565b91507fffffffffffffffffffffffffffffffffffffffffffffffffffffffffffffffff820361228a5761228961221e565b5b600182019050919050565b60006040820190506122aa6000830185611d1f565b6122b76020830184611d1f565b9392505050565b7f5342543a204e6f6e2d7472616e7366657261626c650000000000000000000000600082015250565b60006122f4601583611acd565b91506122ff826122be565b602082019050919050565b60006020820190508181036000830152612323816122e7565b9050919050565b600081905092915050565b600061234082611ac2565b61234a818561232a565b935061235a818560208601611ade565b80840191505092915050565b60006123728285612335565b915061237e8284612335565b91508190509392505050565b7f4e487b7100000000000000000000000000000000000000000000000000000000600052601260045260246000fd5b600081519050919050565b600082825260208201905092915050565b60006123e0826123b9565b6123ea81856123c4565b93506123fa818560208601611ade565b61240381611b08565b840191505092915050565b60006080820190506124236000830187611c09565b6124306020830186611c09565b61243d6040830185611d1f565b818103606083015261244f81846123d5565b905095945050505050565b60008151905061246981611a33565b92915050565b600060208284031215612485576124846119fd565b5b60006124938482850161245a565b91505092915050565b60006040820190506124b16000830185611c09565b6124be6020830184611d1f565b939250505056fea2646970667358221220a4db7575006c473bbb4be93cd5402dc4c4eb5af7dad24cf6378e616cc7bd403264736f6c63430008140033",
  "linkReferences": {},
  "deployedLinkReferences": {}
}