{
  "_format": "hh-sol-artifact-1",
  "contractName": "PropShieldLending",
  "sourceName": "contracts/PropShieldLending.sol",
  "abi": [
    {
      "inputs": [],
      "stateMutability": "nonpayable",
      "type": "constructor"
    },
    {
      "inputs": [
        {
          "internalType": "address",
          "name": "sender",
          "type": "address"
        },
        {
          "internalType": "uint256",
          "name": "tokenId",
          "type": "uint256"
        },
        {
          "internalType": "address",
          "name": "owner",
          "type": "address"
        }
      ],
      "name": "ERC721IncorrectOwner",
      "type": "error"
    },
    {
      "inputs": [
        {
          "internalType": "address",
          "name": "operator",
          "type": "address"
        },
        {
          "internalType": "uint256",
          "name": "tokenId",
          "type": "uint256"
        }
      ],
      "name": "ERC721InsufficientApproval",
      "type": "error"
    },
    {
      "inputs": [
        {
          "internalType": "address",
          "name": "approver",
          "type": "address"
        }
      ],
      "name": "ERC721InvalidApprover",
      "type": "error"
    },
    {
      "inputs": [
        {
          "internalType": "address",
          "name": "operator",
          "type": "address"
        }
      ],
      "name": "ERC721InvalidOperator",
      "type": "error"
    },
    {
      "inputs": [
        {
          "internalType": "address",
          "name": "owner",
          "type": "address"
        }
      ],
      "name": "ERC721InvalidOwner",
      "type": "error"
    },
    {
      "inputs": [
        {
          "internalType": "address",
          "name": "receiver",
          "type": "address"
        }
      ],
      "name": "ERC721InvalidReceiver",
      "type": "error"
    },
    {
      "inputs": [
        {
          "internalType": "address",
          "name": "sender",
          "type": "address"
        }
      ],
      "name": "ERC721InvalidSender",
      "type": "error"
    },
    {
      "inputs": [
        {
          "internalType": "uint256",
          "name": "tokenId",
          "type": "uint256"
        }
      ],
      "name": "ERC721NonexistentToken",
      "type": "error"
    },
    {
      "inputs": [
        {
          "internalType": "address",
          "name": "owner",
          "type": "address"
        }
      ],
      "name": "OwnableInvalidOwner",
      "type": "error"
    },
    {
      "inputs": [
        {
          "internalType": "address",
          "name": "account",
          "type": "address"
        }
      ],
      "name": "OwnableUnauthorizedAccount",
      "type": "error"
    },
    {
      "anonymous": false,
      "inputs": [
        {
          "indexed": true,
          "internalType": "address",
          "name": "owner",
          "type": "address"
        },
        {
          "indexed": true,
          "internalType": "address",
          "name": "approved",
          "type": "address"
        },
        {
          "indexed": true,
          "internalType": "uint256",
          "name": "tokenId",
          "type": "uint256"
        }
      ],
      "name": "Approval",
      "type": "event"
    },
    {
      "anonymous": false,
      "inputs": [
        {
          "indexed": true,
          "internalType": "address",
          "name": "owner",
          "type": "address"
        },
        {
          "indexed": true,
          "internalType": "address",
          "name": "operator",
          "type": "address"
        },
        {
          "indexed": false,
          "internalType": "bool",
          "name": "approved",
          "type": "bool"
        }
      ],
      "name": "ApprovalForAll",
      "type": "event"
    },
    {
      "anonymous": false,
      "inputs": [
        {
          "indexed": false,
          "internalType": "uint256",
          "name": "_fromTokenId",
          "type": "uint256"
        },
        {
          "indexed": false,
          "internalType": "uint256",
          "name": "_toTokenId",
          "type": "uint256"
        }
      ],
      "name": "BatchMetadataUpdate",
      "type": "event"
    },
    {
      "anonymous": false,
      "inputs": [
        {
          "indexed": true,
          "internalType": "address",
          "name": "borrower",
          "type": "address"
        },
        {
          "indexed": false,
          "internalType": "uint256",
          "name": "limit",
          "type": "uint256"
        },
        {
          "indexed": false,
          "internalType": "uint256",
          "name": "score",
          "type": "uint256"
        }
      ],
      "name": "CreditLineUpdated",
      "type": "event"
    },
    {
      "anonymous": false,
      "inputs": [
        {
          "indexed": false,
          "internalType": "uint256",
          "name": "_tokenId",
          "type": "uint256"
        }
      ],
      "name": "MetadataUpdate",
      "type": "event"
    },
    {
      "anonymous": false,
      "inputs": [
        {
          "indexed": true,
          "internalType": "address",
          "name": "previousOwner",
          "type": "address"
        },
        {
          "indexed": true,
          "internalType": "address",
          "name": "newOwner",
          "type": "address"
        }
      ],
      "name": "OwnershipTransferred",
      "type": "event"
    },
    {
      "anonymous": false,
      "inputs": [
        {
          "indexed": true,
          "internalType": "address",
          "name": "borrower",
          "type": "address"
        },
        {
          "indexed": false,
          "internalType": "uint256",
          "name": "tokenId",
          "type": "uint256"
        }
      ],
      "name": "SoulboundMinted",
      "type": "event"
    },
    {
      "anonymous": false,
      "inputs": [
        {
          "indexed": true,
          "internalType": "address",
          "name": "from",
          "type": "address"
        },
        {
          "indexed": true,
          "internalType": "address",
          "name": "to",
          "type": "address"
        },
        {
          "indexed": true,
          "internalType": "uint256",
          "name": "tokenId",
          "type": "uint256"
        }
      ],
      "name": "Transfer",
      "type": "event"
    },
    {
      "inputs": [
        {
          "internalType": "address",
          "name": "to",
          "type": "address"
        },
        {
          "internalType": "uint256",
          "name": "tokenId",
          "type": "uint256"
        }
      ],
      "name": "approve",
      "outputs": [],
      "stateMutability": "nonpayable",
      "type": "function"
    },
    {
      "inputs": [
        {
          "internalType": "address",
          "name": "owner",
          "type": "address"
        }
      ],
      "name": "balanceOf",
      "outputs": [
        {
          "internalType": "uint256",
          "name": "",
          "type": "uint256"
        }
      ],
      "stateMutability": "view",
      "type": "function"
    },
    {
      "inputs": [
        {
          "internalType": "address",
          "name": "",
          "type": "address"
        }
      ],
      "name": "borrowers",
      "outputs": [
        {
          "internalType": "uint256",
          "name": "verifiedIncome",
          "type": "uint256"
        },
        {
          "internalType": "uint256",
          "name": "creditScore",
          "type": "uint256"
        },
        {
          "internalType": "uint256",
          "name": "creditLimit",
          "type": "uint256"
        },
        {
          "internalType": "uint256",
          "name": "lastUpdate",
          "type": "uint256"
        }
      ],
      "stateMutability": "view",
      "type": "function"
    },
    {
      "inputs": [
        {
          "internalType": "uint256",
          "name": "tokenId",
          "type": "uint256"
        }
      ],
      "name": "getApproved",
      "outputs": [
        {
          "internalType": "address",
          "name": "",
          "type": "address"
        }
      ],
      "stateMutability": "view",
      "type": "function"
    },
    {
      "inputs": [
        {
          "internalType": "address",
          "name": "owner",
          "type": "address"
        },
        {
          "internalType": "address",
          "name": "operator",
          "type": "address"
        }
      ],
      "name": "isApprovedForAll",
      "outputs": [
        {
          "internalType": "bool",
          "name": "",
          "type": "bool"
        }
      ],
      "stateMutability": "view",
      "type": "function"
    },
    {
      "inputs": [
        {
          "internalType": "string",
          "name": "tokenURI",
          "type": "string"
        }
      ],
      "name": "mintSBT",
      "outputs": [],
      "stateMutability": "nonpayable",
      "type": "function"
    },
    {
      "inputs": [],
      "name": "name",
      "outputs": [
        {
          "internalType": "string",
          "name": "",
          "type": "string"
        }
      ],
      "stateMutability": "view",
      "type": "function"
    },
    {
      "inputs": [],
      "name": "oracle",
      "outputs": [
        {
          "internalType": "address",
          "name": "",
          "type": "address"
        }
      ],
      "stateMutability": "view",
      "type": "function"
    },
    {
      "inputs": [],
      "name": "owner",
      "outputs": [
        {
          "internalType": "address",
          "name": "",
          "type": "address"
        }
      ],
      "stateMutability": "view",
      "type": "function"
    },
    {
      "inputs": [
        {
          "internalType": "uint256",
          "name": "tokenId",
          "type": "uint256"
        }
      ],
      "name": "ownerOf",
      "outputs": [
        {
          "internalType": "address",
          "name": "",
          "type": "address"
        }
      ],
      "stateMutability": "view",
      "type": "function"
    },
    {
      "inputs": [],
      "name": "renounceOwnership",
      "outputs": [],
      "stateMutability": "nonpayable",
      "type": "function"
    },
    {
      "inputs": [
        {
          "internalType": "address",
          "name": "from",
          "type": "address"
        },
        {
          "internalType": "address",
          "name": "to",
          "type": "address"
        },
        {
          "internalType": "uint256",
          "name": "tokenId",
          "type": "uint256"
        }
      ],
      "name": "safeTransferFrom",
      "outputs": [],
      "stateMutability": "nonpayable",
      "type": "function"
    },
    {
      "inputs": [
        {
          "internalType": "address",
          "name": "",
          "type": "address"
        },
        {
          "internalType": "address",
          "name": "",
          "type": "address"
        },
        {
          "internalType": "uint256",
          "name": "",
          "type": "uint256"
        },
        {
          "internalType": "bytes",
          "name": "",
          "type": "bytes"
        }
      ],
      "name": "safeTransferFrom",
      "outputs": [],
      "stateMutability": "pure",
      "type": "function"
    },
    {
      "inputs": [
        {
          "internalType": "address",
          "name": "operator",
          "type": "address"
        },
        {
          "internalType": "bool",
          "name": "approved",
          "type": "bool"
        }
      ],
      "name": "setApprovalForAll",
      "outputs": [],
      "stateMutability": "nonpayable",
      "type": "function"
    },
    {
      "inputs": [
        {
          "internalType": "address",
          "name": "_oracle",
          "type": "address"
        }
      ],
      "name": "setOracle",
      "outputs": [],
      "stateMutability": "nonpayable",
      "type": "function"
    },
    {
      "inputs": [
        {
          "internalType": "bytes4",
          "name": "interfaceId",
          "type": "bytes4"
        }
      ],
      "name": "supportsInterface",
      "outputs": [
        {
          "internalType": "bool",
          "name": "",
          "type": "bool"
        }
      ],
      "stateMutability": "view",
      "type": "function"
    },
    {
      "inputs": [],
      "name": "symbol",
      "outputs": [
        {
          "internalType": "string",
          "name": "",
          "type": "string"
        }
      ],
      "stateMutability": "view",
      "type": "function"
    },
    {
      "inputs": [
        {
          "internalType": "uint256",
          "name": "tokenId",
          "type": "uint256"
        }
      ],
      "name": "tokenURI",
      "outputs": [
        {
          "internalType": "string",
          "name": "",
          "type": "string"
        }
      ],
      "stateMutability": "view",
      "type": "function"
    },
    {
      "inputs": [
        {
          "internalType": "address",
          "name": "",
          "type": "address"
        },
        {
          "internalType": "address",
          "name": "",
          "type": "address"
        },
        {
          "internalType": "uint256",
          "name": "",
          "type": "uint256"
        }
      ],
      "name": "transferFrom",
      "outputs": [],
      "stateMutability": "pure",
      "type": "function"
    },
    {
      "inputs": [
        {
          "internalType": "address",
          "name": "newOwner",
          "type": "address"
        }
      ],
      "name": "transferOwnership",
      "outputs": [],
      "stateMutability": "nonpayable",
      "type": "function"
    },
    {
      "inputs": [
        {
          "internalType": "address",
          "name": "_borrower",
          "type": "address"
        },
        {
          "internalType": "uint256",
          "name": "_income",
          "type": "uint256"
        },
        {
          "internalType": "uint256",
          "name": "_score",
          "type": "uint256"
        }
      ],
      "name": "updateCreditLine",
      "outputs": [],
      "stateMutability": "nonpayable",
      "type": "function"
    }
  ],
  "bytecode": "0x60806040523480156200001157600080fd5b50336040518060400160405280601781526020017f50726f70536869656c64204372656469742053636f72650000000000000000008152506040518060400160405280600381526020017f50435300000000000000000000000000000000000000000000000000000000008152508160009081620000909190620004b3565b508060019081620000a29190620004b3565b505050600073ffffffffffffffffffffffffffffffffffffffff168173ffffffffffffffffffffffffffffffffffffffff16036200011a5760006040517f1e4fbdf7000000000000000000000000000000000000000000000000000000008152600401620001119190620005df565b60405180910390fd5b6200012b816200017360201b60201c565b5033600860006101000a81548173ffffffffffffffffffffffffffffffffffffffff021916908373ffffffffffffffffffffffffffffffffffffffff160217905550620005fc565b6000600760009054906101000a900473ffffffffffffffffffffffffffffffffffffffff16905081600760006101000a81548173ffffffffffffffffffffffffffffffffffffffff021916908373ffffffffffffffffffffffffffffffffffffffff1602179055508173ffffffffffffffffffffffffffffffffffffffff168173ffffffffffffffffffffffffffffffffffffffff167f8be0079c531659141344cd1fd0a4f28419497f9722a3daafe3b4186f6b6457e060405160405180910390a35050565b600081519050919050565b7f4e487b7100000000000000000000000000000000000000000000000000000000600052604160045260246000fd5b7f4e487b7100000000000000000000000000000000000000000000000000000000600052602260045260246000fd5b60006002820490506001821680620002bb57607f821691505b602082108103620002d157620002d062000273565b5b50919050565b60008190508160005260206000209050919050565b60006020601f8301049050919050565b600082821b905092915050565b6000600883026200033b7fffffffffffffffffffffffffffffffffffffffffffffffffffffffffffffffff82620002fc565b620003478683620002fc565b95508019841693508086168417925050509392505050565b6000819050919050565b6000819050919050565b6000620003946200038e62000388846200035f565b62000369565b6200035f565b9050919050565b6000819050919050565b620003b08362000373565b620003c8620003bf826200039b565b84845462000309565b825550505050565b600090565b620003df620003d0565b620003ec818484620003a5565b505050565b5b81811015620004145762000408600082620003d5565b600181019050620003f2565b5050565b601f82111562000463576200042d81620002d7565b6200043884620002ec565b8101602085101562000448578190505b620004606200045785620002ec565b830182620003f1565b50505b505050565b600082821c905092915050565b6000620004886000198460080262000468565b1980831691505092915050565b6000620004a3838362000475565b9150826002028217905092915050565b620004be8262000239565b67ffffffffffffffff811115620004da57620004d962000244565b5b620004e68254620002a2565b620004f382828562000418565b600060209050601f8311600181146200052b576000841562000516578287015190505b62000522858262000495565b86555062000592565b601f1984166200053b86620002d7565b60005b8281101562000565578489015182556001820191506020850194506020810190506200053e565b8683101562000585578489015162000581601f89168262000475565b8355505b6001600288020188555050505b505050505050565b600073ffffffffffffffffffffffffffffffffffffffff82169050919050565b6000620005c7826200059a565b9050919050565b620005d981620005ba565b82525050565b6000602082019050620005f66000830184620005ce565b92915050565b612c9e806200060c6000396000f3fe608060405234801561001057600080fd5b50600436106101375760003560e01c80637dc0d1d0116100b8578063b88d4fde1161007c578063b88d4fde14610326578063bf5d50c414610342578063c87b56dd14610375578063cf968e78146103a5578063e985e9c5146103c1578063f2fde38b146103f157610137565b80637dc0d1d0146102945780638da5cb5b146102b257806395d89b41146102d057806396c19883146102ee578063a22cb4651461030a57610137565b806342842e0e116100ff57806342842e0e146101f25780636352211e1461020e57806370a082311461023e578063715018a61461026e5780637adbf9731461027857610137565b806301ffc9a71461013c57806306fdde031461016c578063081812fc1461018a578063095ea7b3146101ba57806323b872dd146101d6575b600080fd5b61015660048036038101906101519190611e5c565b61040d565b6040516101639190611ea4565b60405180910390f35b61017461041f565b6040516101819190611f4f565b60405180910390f35b6101a4600480360381019061019f9190611fa7565b6104b1565b6040516101b19190612015565b60405180910390f35b6101d460048036038101906101cf919061205c565b6104cd565b005b6101f060048036038101906101eb919061209c565b6104e3565b005b61020c6004803603810190610207919061209c565b61051e565b005b61022860048036038101906102239190611fa7565b61053e565b6040516102359190612015565b60405180910390f35b610258600480360381019061025391906120ef565b610550565b604051610265919061212b565b60405180910390f35b61027661060a565b005b610292600480360381019061028d91906120ef565b61061e565b005b61029c61066a565b6040516102a99190612015565b60405180910390f35b6102ba610690565b6040516102c79190612015565b60405180910390f35b6102d86106ba565b6040516102e59190611f4f565b60405180910390f35b61030860048036038101906103039190612146565b61074c565b005b610324600480360381019061031f91906121c5565b61090c565b005b610340600480360381019061033b919061233a565b610922565b005b61035c600480360381019061035791906120ef565b61095d565b60405161036c94939291906123bd565b60405180910390f35b61038f600480360381019061038a9190611fa7565b61098d565b60405161039c9190611f4f565b60405180910390f35b6103bf60048036038101906103ba91906124a3565b61099f565b005b6103db60048036038101906103d691906124ec565b610af1565b6040516103e89190611ea4565b60405180910390f35b61040b600480360381019061040691906120ef565b610b85565b005b600061041882610c0b565b9050919050565b60606000805461042e9061255b565b80601f016020809104026020016040519081016040528092919081815260200182805461045a9061255b565b80156104a75780601f1061047c576101008083540402835291602001916104a7565b820191906000526020600020905b81548152906001019060200180831161048a57829003601f168201915b5050505050905090565b60006104bc82610c6c565b506104c682610cf4565b9050919050565b6104df82826104da610d31565b610d39565b5050565b6040517f08c379a0000000000000000000000000000000000000000000000000000000008152600401610515906125d8565b60405180910390fd5b61053983838360405180602001604052806000815250610922565b505050565b600061054982610c6c565b9050919050565b60008073ffffffffffffffffffffffffffffffffffffffff168273ffffffffffffffffffffffffffffffffffffffff16036105c35760006040517f89c62b640000000000000000000000000000000000000000000000000000000081526004016105ba9190612015565b60405180910390fd5b600360008373ffffffffffffffffffffffffffffffffffffffff1673ffffffffffffffffffffffffffffffffffffffff168152602001908152602001600020549050919050565b610612610d4b565b61061c6000610dd2565b565b610626610d4b565b80600860006101000a81548173ffffffffffffffffffffffffffffffffffffffff021916908373ffffffffffffffffffffffffffffffffffffffff16021790555050565b600860009054906101000a900473ffffffffffffffffffffffffffffffffffffffff1681565b6000600760009054906101000a900473ffffffffffffffffffffffffffffffffffffffff16905090565b6060600180546106c99061255b565b80601f01602080910402602001604051908101604052809291908181526020018280546106f59061255b565b80156107425780601f1061071757610100808354040283529160200191610742565b820191906000526020600020905b81548152906001019060200180831161072557829003601f168201915b5050505050905090565b600860009054906101000a900473ffffffffffffffffffffffffffffffffffffffff1673ffffffffffffffffffffffffffffffffffffffff163373ffffffffffffffffffffffffffffffffffffffff16146107dc576040517f08c379a00000000000000000000000000000000000000000000000000000000081526004016107d390612644565b60405180910390fd5b6000605082106108065760646032846107f59190612693565b6107ff9190612704565b905061082b565b6032821061082a576064601e8461081d9190612693565b6108279190612704565b90505b5b604051806080016040528084815260200183815260200182815260200142815250600a60008673ffffffffffffffffffffffffffffffffffffffff1673ffffffffffffffffffffffffffffffffffffffff168152602001908152602001600020600082015181600001556020820151816001015560408201518160020155606082015181600301559050508373ffffffffffffffffffffffffffffffffffffffff167fa0b56bf6675577137e77b355e9aca56ffe229fe1249dd51ff64dc21cae66208982846040516108fe929190612735565b60405180910390a250505050565b61091e610917610d31565b8383610e98565b5050565b6040517f08c379a0000000000000000000000000000000000000000000000000000000008152600401610954906125d8565b60405180910390fd5b600a6020528060005260406000206000915090508060000154908060010154908060020154908060030154905084565b606061099882611007565b9050919050565b6050600a60003373ffffffffffffffffffffffffffffffffffffffff1673ffffffffffffffffffffffffffffffffffffffff168152602001908152602001600020600101541015610a25576040517f08c379a0000000000000000000000000000000000000000000000000000000008152600401610a1c906127aa565b60405180910390fd5b6000610a3033610550565b14610a70576040517f08c379a0000000000000000000000000000000000000000000000000000000008152600401610a6790612816565b60405180910390fd5b600060096000815480929190610a8590612836565b919050559050610a95338261111a565b610a9f8183611138565b3373ffffffffffffffffffffffffffffffffffffffff167f1b56326e3230d5c19ffd3088fee3138b7f327c7589ce1ec99ebafb8f63150bd682604051610ae5919061212b565b60405180910390a25050565b6000600560008473ffffffffffffffffffffffffffffffffffffffff1673ffffffffffffffffffffffffffffffffffffffff16815260200190815260200160002060008373ffffffffffffffffffffffffffffffffffffffff1673ffffffffffffffffffffffffffffffffffffffff16815260200190815260200160002060009054906101000a900460ff16905092915050565b610b8d610d4b565b600073ffffffffffffffffffffffffffffffffffffffff168173ffffffffffffffffffffffffffffffffffffffff1603610bff5760006040517f1e4fbdf7000000000000000000000000000000000000000000000000000000008152600401610bf69190612015565b60405180910390fd5b610c0881610dd2565b50565b6000634906490660e01b7bffffffffffffffffffffffffffffffffffffffffffffffffffffffff1916827bffffffffffffffffffffffffffffffffffffffffffffffffffffffff19161480610c655750610c6482611194565b5b9050919050565b600080610c7883611276565b9050600073ffffffffffffffffffffffffffffffffffffffff168173ffffffffffffffffffffffffffffffffffffffff1603610ceb57826040517f7e273289000000000000000000000000000000000000000000000000000000008152600401610ce2919061212b565b60405180910390fd5b80915050919050565b60006004600083815260200190815260200160002060009054906101000a900473ffffffffffffffffffffffffffffffffffffffff169050919050565b600033905090565b610d4683838360016112b3565b505050565b610d53610d31565b73ffffffffffffffffffffffffffffffffffffffff16610d71610690565b73ffffffffffffffffffffffffffffffffffffffff1614610dd057610d94610d31565b6040517f118cdaa7000000000000000000000000000000000000000000000000000000008152600401610dc79190612015565b60405180910390fd5b565b6000600760009054906101000a900473ffffffffffffffffffffffffffffffffffffffff16905081600760006101000a81548173ffffffffffffffffffffffffffffffffffffffff021916908373ffffffffffffffffffffffffffffffffffffffff1602179055508173ffffffffffffffffffffffffffffffffffffffff168173ffffffffffffffffffffffffffffffffffffffff167f8be0079c531659141344cd1fd0a4f28419497f9722a3daafe3b4186f6b6457e060405160405180910390a35050565b600073ffffffffffffffffffffffffffffffffffffffff168273ffffffffffffffffffffffffffffffffffffffff1603610f0957816040517f5b08ba18000000000000000000000000000000000000000000000000000000008152600401610f009190612015565b60405180910390fd5b80600560008573ffffffffffffffffffffffffffffffffffffffff1673ffffffffffffffffffffffffffffffffffffffff16815260200190815260200160002060008473ffffffffffffffffffffffffffffffffffffffff1673ffffffffffffffffffffffffffffffffffffffff16815260200190815260200160002060006101000a81548160ff0219169083151502179055508173ffffffffffffffffffffffffffffffffffffffff168373ffffffffffffffffffffffffffffffffffffffff167f17307eab39ab6107e8899845ad3d59bd9653f200f220920489ca2b5937696c3183604051610ffa9190611ea4565b60405180910390a3505050565b606061101282610c6c565b5060006006600084815260200190815260200160002080546110339061255b565b80601f016020809104026020016040519081016040528092919081815260200182805461105f9061255b565b80156110ac5780601f10611081576101008083540402835291602001916110ac565b820191906000526020600020905b81548152906001019060200180831161108f57829003601f168201915b5050505050905060006110bd611478565b905060008151036110d2578192505050611115565b6000825111156111075780826040516020016110ef9291906128ba565b60405160208183030381529060405292505050611115565b6111108461148f565b925050505b919050565b6111348282604051806020016040528060008152506114f8565b5050565b806006600084815260200190815260200160002090816111589190612a8a565b507ff8e1a15aba9398e019f0b49df1a4fde98ee17ae345cb5f6b5e2c27f5033e8ce782604051611188919061212b565b60405180910390a15050565b60007f80ac58cd000000000000000000000000000000000000000000000000000000007bffffffffffffffffffffffffffffffffffffffffffffffffffffffff1916827bffffffffffffffffffffffffffffffffffffffffffffffffffffffff1916148061125f57507f5b5e139f000000000000000000000000000000000000000000000000000000007bffffffffffffffffffffffffffffffffffffffffffffffffffffffff1916827bffffffffffffffffffffffffffffffffffffffffffffffffffffffff1916145b8061126f575061126e8261151c565b5b9050919050565b60006002600083815260200190815260200160002060009054906101000a900473ffffffffffffffffffffffffffffffffffffffff169050919050565b80806112ec5750600073ffffffffffffffffffffffffffffffffffffffff168273ffffffffffffffffffffffffffffffffffffffff1614155b156114205760006112fc84610c6c565b9050600073ffffffffffffffffffffffffffffffffffffffff168373ffffffffffffffffffffffffffffffffffffffff161415801561136757508273ffffffffffffffffffffffffffffffffffffffff168173ffffffffffffffffffffffffffffffffffffffff1614155b801561137a57506113788184610af1565b155b156113bc57826040517fa9fbf51f0000000000000000000000000000000000000000000000000000000081526004016113b39190612015565b60405180910390fd5b811561141e57838573ffffffffffffffffffffffffffffffffffffffff168273ffffffffffffffffffffffffffffffffffffffff167f8c5be1e5ebec7d5bd14f71427d1e84f3dd0314c0f7b2291e5b200ac8c7c3b92560405160405180910390a45b505b836004600085815260200190815260200160002060006101000a81548173ffffffffffffffffffffffffffffffffffffffff021916908373ffffffffffffffffffffffffffffffffffffffff16021790555050505050565b606060405180602001604052806000815250905090565b606061149a82610c6c565b5060006114a5611478565b905060008151116114c557604051806020016040528060008152506114f0565b806114cf84611586565b6040516020016114e09291906128ba565b6040516020818303038152906040525b915050919050565b6115028383611654565b61151761150d610d31565b600085858561174d565b505050565b60007f01ffc9a7000000000000000000000000000000000000000000000000000000007bffffffffffffffffffffffffffffffffffffffffffffffffffffffff1916827bffffffffffffffffffffffffffffffffffffffffffffffffffffffff1916149050919050565b606060006001611595846118fe565b01905060008167ffffffffffffffff8111156115b4576115b361220f565b5b6040519080825280601f01601f1916602001820160405280156115e65781602001600182028036833780820191505090505b509050600082602083010190505b600115611649578080600190039150507f3031323334353637383961626364656600000000000000000000000000000000600a86061a8153600a858161163d5761163c6126d5565b5b049450600085036115f4575b819350505050919050565b600073ffffffffffffffffffffffffffffffffffffffff168273ffffffffffffffffffffffffffffffffffffffff16036116c65760006040517f64a0ae920000000000000000000000000000000000000000000000000000000081526004016116bd9190612015565b60405180910390fd5b60006116d483836000611a51565b9050600073ffffffffffffffffffffffffffffffffffffffff168173ffffffffffffffffffffffffffffffffffffffff16146117485760006040517f73c6ac6e00000000000000000000000000000000000000000000000000000000815260040161173f9190612015565b60405180910390fd5b505050565b60008373ffffffffffffffffffffffffffffffffffffffff163b11156118f7578273ffffffffffffffffffffffffffffffffffffffff1663150b7a02868685856040518563ffffffff1660e01b81526004016117ac9493929190612bb1565b6020604051808303816000875af19250505080156117e857506040513d601f19601f820116820180604052508101906117e59190612c12565b60015b61186c573d8060008114611818576040519150601f19603f3d011682016040523d82523d6000602084013e61181d565b606091505b50600081510361186457836040517f64a0ae9200000000000000000000000000000000000000000000000000000000815260040161185b9190612015565b60405180910390fd5b805160208201fd5b63150b7a0260e01b7bffffffffffffffffffffffffffffffffffffffffffffffffffffffff1916817bffffffffffffffffffffffffffffffffffffffffffffffffffffffff1916146118f557836040517f64a0ae920000000000000000000000000000000000000000000000000000000081526004016118ec9190612015565b60405180910390fd5b505b5050505050565b600080600090507a184f03e93ff9f4daa797ed6e38ed64bf6a1f010000000000000000831061195c577a184f03e93ff9f4daa797ed6e38ed64bf6a1f0100000000000000008381611952576119516126d5565b5b0492506040810190505b6d04ee2d6d415b85acef81000000008310611999576d04ee2d6d415b85acef8100000000838161198f5761198e6126d5565b5b0492506020810190505b662386f26fc1000083106119c857662386f26fc1000083816119be576119bd6126d5565b5b0492506010810190505b6305f5e10083106119f1576305f5e10083816119e7576119e66126d5565b5b0492506008810190505b6127108310611a16576127108381611a0c57611a0b6126d5565b5b0492506004810190505b60648310611a395760648381611a2f57611a2e6126d5565b5b0492506002810190505b600a8310611a48576001810190505b80915050919050565b600080611a5d84611276565b9050600073ffffffffffffffffffffffffffffffffffffffff168373ffffffffffffffffffffffffffffffffffffffff1614611a9f57611a9e818486611c6b565b5b600073ffffffffffffffffffffffffffffffffffffffff168173ffffffffffffffffffffffffffffffffffffffff1614611b3057611ae16000856000806112b3565b6001600360008373ffffffffffffffffffffffffffffffffffffffff1673ffffffffffffffffffffffffffffffffffffffff168152602001908152602001600020600082825403925050819055505b600073ffffffffffffffffffffffffffffffffffffffff168573ffffffffffffffffffffffffffffffffffffffff1614611bb3576001600360008773ffffffffffffffffffffffffffffffffffffffff1673ffffffffffffffffffffffffffffffffffffffff168152602001908152602001600020600082825401925050819055505b846002600086815260200190815260200160002060006101000a81548173ffffffffffffffffffffffffffffffffffffffff021916908373ffffffffffffffffffffffffffffffffffffffff160217905550838573ffffffffffffffffffffffffffffffffffffffff168273ffffffffffffffffffffffffffffffffffffffff167fddf252ad1be2c89b69c2b068fc378daa952ba7f163c4a11628f55a4df523b3ef60405160405180910390a4809150509392505050565b611c76838383611d2f565b611d2a57600073ffffffffffffffffffffffffffffffffffffffff168373ffffffffffffffffffffffffffffffffffffffff1603611ceb57806040517f7e273289000000000000000000000000000000000000000000000000000000008152600401611ce2919061212b565b60405180910390fd5b81816040517f177e802f000000000000000000000000000000000000000000000000000000008152600401611d21929190612c3f565b60405180910390fd5b505050565b60008073ffffffffffffffffffffffffffffffffffffffff168373ffffffffffffffffffffffffffffffffffffffff1614158015611de757508273ffffffffffffffffffffffffffffffffffffffff168473ffffffffffffffffffffffffffffffffffffffff161480611da85750611da78484610af1565b5b80611de657508273ffffffffffffffffffffffffffffffffffffffff16611dce83610cf4565b73ffffffffffffffffffffffffffffffffffffffff16145b5b90509392505050565b6000604051905090565b600080fd5b600080fd5b60007fffffffff0000000000000000000000000000000000000000000000000000000082169050919050565b611e3981611e04565b8114611e4457600080fd5b50565b600081359050611e5681611e30565b92915050565b600060208284031215611e7257611e71611dfa565b5b6000611e8084828501611e47565b91505092915050565b60008115159050919050565b611e9e81611e89565b82525050565b6000602082019050611eb96000830184611e95565b92915050565b600081519050919050565b600082825260208201905092915050565b60005b83811015611ef9578082015181840152602081019050611ede565b60008484015250505050565b6000601f19601f8301169050919050565b6000611f2182611ebf565b611f2b8185611eca565b9350611f3b818560208601611edb565b611f4481611f05565b840191505092915050565b60006020820190508181036000830152611f698184611f16565b905092915050565b6000819050919050565b611f8481611f71565b8114611f8f57600080fd5b50565b600081359050611fa181611f7b565b92915050565b600060208284031215611fbd57611fbc611dfa565b5b6000611fcb84828501611f92565b91505092915050565b600073ffffffffffffffffffffffffffffffffffffffff82169050919050565b6000611fff82611fd4565b9050919050565b61200f81611ff4565b82525050565b600060208201905061202a6000830184612006565b92915050565b61203981611ff4565b811461204457600080fd5b50565b60008135905061205681612030565b92915050565b6000806040838503121561207357612072611dfa565b5b600061208185828601612047565b925050602061209285828601611f92565b9150509250929050565b6000806000606084860312156120b5576120b4611dfa565b5b60006120c386828701612047565b93505060206120d486828701612047565b92505060406120e586828701611f92565b9150509250925092565b60006020828403121561210557612104611dfa565b5b600061211384828501612047565b91505092915050565b61212581611f71565b82525050565b6000602082019050612140600083018461211c565b92915050565b60008060006060848603121561215f5761215e611dfa565b5b600061216d86828701612047565b935050602061217e86828701611f92565b925050604061218f86828701611f92565b9150509250925092565b6121a281611e89565b81146121ad57600080fd5b50565b6000813590506121bf81612199565b92915050565b600080604083850312156121dc576121db611dfa565b5b60006121ea85828601612047565b92505060206121fb858286016121b0565b9150509250929050565b600080fd5b600080fd5b7f4e487b7100000000000000000000000000000000000000000000000000000000600052604160045260246000fd5b61224782611f05565b810181811067ffffffffffffffff821117156122665761226561220f565b5b80604052505050565b6000612279611df0565b9050612285828261223e565b919050565b600067ffffffffffffffff8211156122a5576122a461220f565b5b6122ae82611f05565b9050602081019050919050565b82818337600083830152505050565b60006122dd6122d88461228a565b61226f565b9050828152602081018484840111156122f9576122f861220a565b5b6123048482856122bb565b509392505050565b600082601f83011261232157612320612205565b5b81356123318482602086016122ca565b91505092915050565b6000806000806080858703121561235457612353611dfa565b5b600061236287828801612047565b945050602061237387828801612047565b935050604061238487828801611f92565b925050606085013567ffffffffffffffff8111156123a5576123a4611dff565b5b6123b18782880161230c565b91505092959194509250565b60006080820190506123d2600083018761211c565b6123df602083018661211c565b6123ec604083018561211c565b6123f9606083018461211c565b95945050505050565b600067ffffffffffffffff82111561241d5761241c61220f565b5b61242682611f05565b9050602081019050919050565b600061244661244184612402565b61226f565b9050828152602081018484840111156124625761246161220a565b5b61246d8482856122bb565b509392505050565b600082601f83011261248a57612489612205565b5b813561249a848260208601612433565b91505092915050565b6000602082840312156124b9576124b8611dfa565b5b600082013567ffffffffffffffff8111156124d7576124d6611dff565b5b6124e384828501612475565b91505092915050565b6000806040838503121561250357612502611dfa565b5b600061251185828601612047565b925050602061252285828601612047565b9150509250929050565b7f4e487b7100000000000000000000000000000000000000000000000000000000600052602260045260246000fd5b6000600282049050600182168061257357607f821691505b6020821081036125865761258561252c565b5b50919050565b7f536f756c626f756e643a205472616e73666572206661696c6564000000000000600082015250565b60006125c2601a83611eca565b91506125cd8261258c565b602082019050919050565b600060208201905081810360008301526125f1816125b5565b9050919050565b7f4e6f74204f7261636c6500000000000000000000000000000000000000000000600082015250565b600061262e600a83611eca565b9150612639826125f8565b602082019050919050565b6000602082019050818103600083015261265d81612621565b9050919050565b7f4e487b7100000000000000000000000000000000000000000000000000000000600052601160045260246000fd5b600061269e82611f71565b91506126a983611f71565b92508282026126b781611f71565b915082820484148315176126ce576126cd612664565b5b5092915050565b7f4e487b7100000000000000000000000000000000000000000000000000000000600052601260045260246000fd5b600061270f82611f71565b915061271a83611f71565b92508261272a576127296126d5565b5b828204905092915050565b600060408201905061274a600083018561211c565b612757602083018461211c565b9392505050565b7f53636f726520746f6f206c6f7720666f72205342540000000000000000000000600082015250565b6000612794601583611eca565b915061279f8261275e565b602082019050919050565b600060208201905081810360008301526127c381612787565b9050919050565b7f416c7265616479206d696e746564000000000000000000000000000000000000600082015250565b6000612800600e83611eca565b915061280b826127ca565b602082019050919050565b6000602082019050818103600083015261282f816127f3565b9050919050565b600061284182611f71565b91507fffffffffffffffffffffffffffffffffffffffffffffffffffffffffffffffff820361287357612872612664565b5b600182019050919050565b600081905092915050565b600061289482611ebf565b61289e818561287e565b93506128ae818560208601611edb565b80840191505092915050565b60006128c68285612889565b91506128d28284612889565b91508190509392505050565b60008190508160005260206000209050919050565b60006020601f8301049050919050565b600082821b905092915050565b6000600883026129407fffffffffffffffffffffffffffffffffffffffffffffffffffffffffffffffff82612903565b61294a8683612903565b95508019841693508086168417925050509392505050565b6000819050919050565b600061298761298261297d84611f71565b612962565b611f71565b9050919050565b6000819050919050565b6129a18361296c565b6129b56129ad8261298e565b848454612910565b825550505050565b600090565b6129ca6129bd565b6129d5818484612998565b505050565b5b818110156129f9576129ee6000826129c2565b6001810190506129db565b5050565b601f821115612a3e57612a0f816128de565b612a18846128f3565b81016020851015612a27578190505b612a3b612a33856128f3565b8301826129da565b50505b505050565b600082821c905092915050565b6000612a6160001984600802612a43565b1980831691505092915050565b6000612a7a8383612a50565b9150826002028217905092915050565b612a9382611ebf565b67ffffffffffffffff811115612aac57612aab61220f565b5b612ab6825461255b565b612ac18282856129fd565b600060209050601f831160018114612af45760008415612ae2578287015190505b612aec8582612a6e565b865550612b54565b601f198416612b02866128de565b60005b82811015612b2a57848901518255600182019150602085019450602081019050612b05565b86831015612b475784890151612b43601f891682612a50565b8355505b6001600288020188555050505b505050505050565b600081519050919050565b600082825260208201905092915050565b6000612b8382612b5c565b612b8d8185612b67565b9350612b9d818560208601611edb565b612ba681611f05565b840191505092915050565b6000608082019050612bc66000830187612006565b612bd36020830186612006565b612be0604083018561211c565b8181036060830152612bf28184612b78565b905095945050505050565b600081519050612c0c81611e30565b92915050565b600060208284031215612c2857612c27611dfa565b5b6000612c3684828501612bfd565b91505092915050565b6000604082019050612c546000830185612006565b612c61602083018461211c565b939250505056fea2646970667358221220458a69d4996cc48bf19a281b2d4b576190483533b0f145b178f9acf80c4a8dd664736f6c63430008140033",
  "linkReferences": {},
  "deployedLinkReferences": {}
}